:020000040800F2
:10200000000D0020652100086D2100086F210008E7
:1020100000000000000000000000000000000000C0
:102020000000000000000000000000007121000816
:102030000000000000000000732100087521000866
:1020400077210008000000007721000877210008B0
:102050007721000877210008772100087721000800
:102060000000000077210008772100087721000890
:102070007721000877210008772100080000000080
:102080007721000800000000000000007721000810
:10209000000000005D270008A12700087721000844
:1020A00077210008772100087721000877210008B0
:1020B000C52700080000000000000000000000002C
:1020C00000F002F800F03EF812A030C808382418DA
:1020D0002D18AC4201D100F035F80FCCA246AB462A
:1020E0000CA730CF2D1B083F3F197C427F1E544464
:1020F0002D090426F441641EAC4201D300F022F8FD
:102100000126334200D0FB1A3343984754465D46BC
:10211000DFE70000241300003413000070470000C4
:102120000023002400250026103A01D378C1FBD8F3
:10213000520700D330C100D50B6070471FB51FBDDB
:1021400010B510BD00F0E3F81146FFF7F7FF00F0FF
:1021500011FC00F0FBF803B4FFF7F2FF03BC00F042
:1021600001F900000748804707480047FEE7FEE7FF
:10217000FEE7FEE7FEE7FEE704480549054A064B91
:10218000704700005B270008C120000800070020FE
:10219000000D002000090020000900200022030992
:1021A0008B422CD3030A8B4211D300239C464EE072
:1021B00003460B433CD4002243088B4231D303092E
:1021C0008B421CD3030A8B4201D394463FE0C309E0
:1021D0008B4201D3CB01C01A524183098B4201D3F8
:1021E0008B01C01A524143098B4201D34B01C01AE3
:1021F000524103098B4201D30B01C01A5241C3085B
:102200008B4201D3CB00C01A524183088B4201D3C9
:102210008B00C01A524143088B4201D34B00C01AB5
:102220005241411A00D201465241104670475DE0CA
:10223000CA0F00D04942031000D3404253409C468D
:10224000002203098B422DD3030A8B4212D389014A
:10225000FC2212BA030A8B420CD3890192118B42E1
:1022600008D3890192118B4204D389013AD092118B
:1022700000E08909C3098B4201D3CB01C01A524146
:1022800083098B4201D38B01C01A524143098B420F
:1022900001D34B01C01A524103098B4201D30B01F8
:1022A000C01A5241C3088B4201D3CB00C01A52411D
:1022B00083088B4201D38B00C01A5241D9D2430804
:1022C0008B4201D34B00C01A5241411A00D2014641
:1022D0005241104663465B1001D34042002B00D5AB
:1022E0004942704763465B1000D3404201B505493F
:1022F000002802DC491C084000E00846C046C046F1
:1023000002BD00BFFFFFFF7F7047704770477546F3
:1023100000F024F8AE46050069465346C008C000E8
:10232000854618B020B5FFF727FF60BCB6460026EB
:102330000027C0C5C0C5C0C5C0C5C0C5C0C5C0C5D3
:10234000C0C5403D490849008D46704710B5044658
:10235000C046C0462046FFF7FEFE10BD004870474D
:102360000000002001491820ABBEFEE72600020055
:10237000704780B500F07EFF002000F0E1FB0028F0
:1023800006D0FFE705200007062100F0D9F9FFE796
:1023900080BD000080B586B0364908680122104330
:1023A0000860002305930193009305200007029025
:1023B0000621039100F04AF90298039900F0B5F95B
:1023C0004B20400200F060F87D200490C00000F037
:1023D00001FB04990598090100F0C6FC06B080BD18
:1023E000014900200860704724440140F0B52148AD
:1023F0000068C007002806D1FFE71E4908680122CF
:1024000010430860FFE70520060730683021C94304
:10241000084030603068202210433060164C20683D
:102420000840206020681021084320601349086894
:102430000F231A02904308600868012215022843FE
:1024400008603068C025ED43284030603068802740
:1024500038433060206828402060206840252843A9
:10246000206008681B039843086008681203104343
:102470000860F0BD341002400C00005020000050F5
:10248000E6488121405C704780B582B0019000F041
:102490004FF8FFF7ABFF019800F004F800F098F850
:1024A00002B080BD80B584B003901849086801224D
:1024B000019252041043086003991548FFF76EFE1D
:1024C000019A80B2134908601349029108680823F1
:1024D0001843086008680423184308600868520716
:1024E0009043086008682022104308601C20009078
:1024F00000F096F90098022100F0BCF9019A0299C7
:1025000008681043086004B080BDC0463C1002401B
:102510000024F4000C4400400044004081B0034813
:10252000006800900098C0B201B070472444004099
:1025300082B0BA490020087001A90870FFE701A81D
:1025400000787F280CDCFFE701A80178B348411828
:1025500000204870FFE70198401C01A90870EEE7D1
:10256000AE4981220020885469460870FFE768461A
:10257000007807280DDCFFE768460178A748411876
:10258000822200208854FFE70098401C69460870AA
:10259000EDE7A2498A22002088548B2288548C229D
:1025A000885402B07047C04622490868012290430F
:1025B00008609A498B220020885470471D4A116890
:1025C00001200143116095498B2288547047C04611
:1025D00080B582B01648006801214904084088424D
:1025E00007D0FFE71249086801225204104308602F
:1025F000FFE7104908688022104308600E490F4821
:1026000008600F49142008600E4908680122104331
:1026100008600D490868104308601520019000F01B
:10262000FFF80198022100F025F902B080BDC046F4
:102630004010024000440140284401407F3E000019
:102640002C440140144401400C44014070B587B053
:102650001C4615460091014600980C9A0B9B06916A
:1026600005A9088004A8057003AD2C7002AC237086
:1026700001AB1A700A885300032215469D40069C40
:102680002368AB43236003781340098849008B40DB
:10269000069A1168194311600078012805D0FFE7F8
:1026A00004A80078022818D1FFE703A800780128C1
:1026B00009D1FFE705A800880122824006994868F1
:1026C0001043486008E005A800880122824006996E
:1026D000486890434860FFE7FFE705A801884A0083
:1026E00003210C469440069B9A68A2439A6001AA73
:1026F00014780C40028852009440069B9A6822434A
:102700009A60028852000C469440069BDA68A24305
:10271000DA6002AA12780A400088400082400699D6
:10272000C8681043C86007B070BD82B001906846A9
:1027300001800188012088400199886102B07047BA
:1027400082B0019068460180008801228240019990
:1027500048695040486102B07047704780B52F48C3
:102760008B21405C012803D1FFE7FFF71DFFFFE746
:10277000FFF786FE012805DBFFE728498C220120B0
:10278000885404E025498C2200208854FFE703493F
:10279000086801229043086080BDC0461044014093
:1027A00080B507480068C007002806D0FFE7044945
:1027B0000868012290430860FFE700F0E5F880BD5B
:1027C0001048014080B5144800688006002822D5D2
:1027D000FFE7FFF7A3FE024610488121435CC318C0
:1027E0005A70425C521C4254405C802805DBFFE773
:1027F0000A49812200208854FFE708488B21405C69
:10280000002805D1FFE7FFF7EBFDFFF7D7FEFFE755
:10281000FFF7E6FDFFE780BD1C440040600000209C
:1028200081B001466846017000214056002809D455
:10283000FFE7684601781F200140012088400C49CD
:102840000860FFE701B0704781B00146684601703B
:1028500000214056002809D4FFE7684601781F2070
:1028600001400120884002490860FFE701B070473D
:1028700000E100E070B582B0024601A8027000914C
:1028800000214056002816D4FFE7002401A908576C
:102890000322D3431840364A805809578C07E50E67
:1028A000FF24AC40A043009CA401E4B2AC40204310
:1028B000194088501AE001A908780F2420400838F0
:1028C0000322D3431840294A8058002549578D07D1
:1028D000EE0EFF25B540A843009DAD01EDB2B54019
:1028E00028432140083919408850FFE702B070BDE5
:1028F00070B582B0024601A80270009100214056D6
:10290000002816D4FFE7002401A908570322D34367
:102910001840174A805809578C07E50EFF24AC4031
:10292000A043009CA401E4B2AC402043194088506D
:102930001AE001A908780F24204008380322D34365
:1029400018400A4A8058002549578D07EE0EFF258A
:10295000B540A843009DAD01EDB2B54028432140EC
:10296000083919408850FFE702B070BD1CED00E047
:1029700000E400E080B582B000200190FFF70AFD7E
:10298000FFE7FFF7F6FCFCE710B5E4490A68108A98
:10299000401C10820A68D069936900245B1C604166
:1029A0009361D0610868008A09680968884209D380
:1029B000FFE7E34802680021118201684869401C72
:1029C0004861FFE7E74801682822885C0123184333
:1029D000885410BD80B582B0019000F06BFC019866
:1029E00000F000FC02B080BD62B6704772B670475E
:1029F00081B069460870DB4800680A781C215143A1
:102A00004018406B01B0704781B069460870D548E6
:102A100000680A781C2151434018006B01B07047D0
:102A200081B069460870CF4800680A781C2151437C
:102A30004018C06B01B0704781B069460870C94842
:102A400000680A781C21514340182C21405CC006C4
:102A5000000F01B07047C04681B069460870C14898
:102A600000680A781C2151434018006C01B070477F
:102A700081B069460870EF4800680A781C2151430C
:102A80004018406C01B0704782B001AA10700091EC
:102A90000098E849096813781C225A43891848634A
:102AA00002B0704782B001AA107000910098EF49FF
:102AB000096813781C225A438918086302B07047CA
:102AC00082B001AA107000910098F149096813784A
:102AD0001C225A438918C86302B0704710B583B0EE
:102AE00000910246009802A90A7001AA1070019B89
:102AF000F04800680A781C21514341182C22885C58
:102B00001B07DB0EE1242040C018885403B010BD21
:102B100082B001AA107000910098E6490968137804
:102B20001C225A438918486402B0704780B582B0AD
:102B3000014601A80170007800F080F802B080BD65
:102B400080B584B0014602A80170007800F04AF810
:102B5000042814D1FFE702A80090007800F034F8B0
:102B60000146009801910078FFF7E0FF0098007897
:102B7000019900F0F9F803A90120087003E003A906
:102B800000200870FFE703A8007804B080BD0000B3
:102B900081B069460870C748006809784901401843
:102BA000BB218900405801B07047C04681B06946DA
:102BB0000870C04800680978490140182F210901B0
:102BC000405801B07047C04681B069460870B948A6
:102BD0000068097849014018BF218900405801B0B8
:102BE0007047C04681B069460870B24800680978ED
:102BF000490140185D21C900405CC006000F01B0CA
:102C00007047C04681B069460870AA4800680978D4
:102C10004901401803210902405801B07047C046DD
:102C200081B069460870A3480068097849014018D6
:102C3000C1218900405801B07047C04680B584B0BA
:102C4000014603A80290017000780021019100F074
:102C5000F3F801990298007800F01CF901990298A4
:102C6000007800F005F901990298007800F06AF800
:102C700001990298007800F053F8019902980078C1
:102C800000F02CF801990298007800F017F80298EB
:102C9000007800F003F804B080BD000081B0694600
:102CA0000870E84800680978490141185D20C200B1
:102CB000885CFE231840885401B0704782B001AA96
:102CC000107000910098DF49096812785201891844
:102CD000BD229200885002B07047C04682B001AA5F
:102CE000107000910098D74909681278520189182C
:102CF000BB229200885002B07047C04682B001AA41
:102D0000107000910098CF49096812785201891813
:102D10002F221201885002B07047C046F0000020F8
:102D200082B001AA107000910098C6490968127813
:102D3000520189185F22D200885002B07047C04605
:102D4000F000002082B001AA107000910098BD49E7
:102D50000968127852018918BF229200885002B087
:102D60007047C046F000002080B58AB0024609A82E
:102D7000027008910078FFF735FF002857D1FFE770
:102D800009A80290007800210191FFF797FF0199AF
:102D90000298007800F07EF802980078089900F018
:102DA00067F800F05DFA079000F05EFA0690089868
:102DB000A449039109680968FFF7F0F908460399E7
:102DC0000590089809680968FFF7E8F903990490E5
:102DD000069A059880180590059809680968884240
:102DE0000BD3FFE70498401C0490964800680168E4
:102DF0000598FFF7D3F90591FFE707990498401864
:102E0000049009A8009000780499FFF767FF0098E4
:102E100000780599FFF772FF009800780899FFF78E
:102E200091FF00980078012100F006F8FFE70AB052
:102E300080BDC046F000002010B583B0009102466E
:102E4000009802A90A7001AA1070019B7D480068D1
:102E50000978490141185D20C200885C1B07DB0E20
:102E6000E1242040C018885403B010BDF0000020B9
:102E700082B001AA107000910098FD49096812788B
:102E80005201891803221202885002B07047C046CE
:102E9000F000002082B001AA107000910098F4495F
:102EA0000968127852018918C1229200885002B034
:102EB0007047C046F000002080B590B001460FA8D2
:102EC00001700078FFF78EFE01285FD1FFE700F068
:102ED000C7F90E9000F0C8F90D900FA8089000787F
:102EE000FFF756FE014608980E9A891A0B91F04991
:102EF000096809680B9A51430B910078FFF756FE59
:102F0000014608980D9A891A0A910B990A9A89180C
:102F10000C9100780C99FFF7BDFF08980078099094
:102F2000FFF770FE014609980C9A891AFFF7C6FE52
:102F30000C98002829D1FFE70FA8079000780021FE
:102F40000491FFF7CBFE049907980078FFF7D6FEAF
:102F5000049907980078FFF79DFF0798007805907F
:102F6000FFF750FE01460598FFF7A8FE0798007886
:102F70000690FFF729FE01460698FFF7E3FE079843
:102F800000780421FFF758FFFFE759E00FA8007809
:102F9000FFF728FE022852D1FFE700F061F90E90FA
:102FA00000F062F90D900FA80078FFF739FE0C9041
:102FB0000C98BF49039109680968FFF7EFF80846C4
:102FC00003990A900C9809680968FFF7E7F80399D4
:102FD0000B900D9A0A9880180A900A980968096857
:102FE00088420BD3FFE70B98401C0B90B048006859
:102FF00001680A98FFF7D2F80A91FFE70E990B983B
:1030000040180B900FA8009000780B99FFF766FE10
:10301000009800780A99FFF771FE009800780290F6
:10302000FFF7F0FD0146009801910078FFF7F8FDE9
:10303000019902460298891AFFF740FEFFE7FFE771
:1030400010B080BDF000002080B582B001A9002042
:103050000870FFE701A8007818280ADCFFE701A83C
:103060000078FFF729FFFFE70198401C01A90870CD
:10307000F0E702B080BD80B592B0014611A80170A2
:10308000002110910078FFF7D7FC01284CD1FFE711
:1030900000F0E6F8109011A80F9000780C90FFF760
:1030A000B3FC01460C98109A891AFFF731FD0F986E
:1030B00000780E90FFF7D0FC01460F980D91007834
:1030C000FFF7D6FC0D9902460E98891AFFF7DCFC33
:1030D0000F980078FFF7CCFC002824D1FFE711A857
:1030E0000B9000780890FFF7B7FC01460898FFF7AF
:1030F000CBFC0B98007800210991FFF709FD099995
:103100000B980078FFF7CEFC0B9800780A90FFF739
:1031100087FC01460A98FFF7D3FC0B98007804213E
:10312000FFF7DCFCFFE743E011A80078FFF784FC21
:1031300002283CD1FFE700F093F8109011A8059009
:103140000078049010990391FFF792FC03990246CE
:1031500004988918FFF7A6FC05980078FFF748FC4B
:103160000146059807910078FFF776FC014605981F
:1031700006910078FFF77CFC069902460798891AA9
:10318000884213D0FFE711A8009000780290FFF763
:1031900063FC0146009801910078FFF769FC0199F2
:1031A00002460298891AFFF76FFCFFE7FFE7FFE787
:1031B00012B080BD80B582B001A900200870FFE781
:1031C00001A8007818280ADCFFE701A80078FFF7BB
:1031D00052FFFFE70198401C01A90870F0E702B018
:1031E00080BD000080B584B00390174908680122B3
:1031F00001929204104308601449029108688022E9
:103200001043086012490F20086003991148FEF727
:10321000C5FF019A401E1049086010490868104314
:103220000860162000900021FFF762FB0098FFF76E
:103230000BFB019A029908681043086003987D49C6
:103240000968086004B080BD401002400048014099
:103250002848014040420F002C4801400C480140E2
:1032600074480068C06870477248006800897047F9
:10327000F000002080B56F4800682821405CC0073E
:1032800000280ED0FFE700F0B5F8FFF793FFFFF737
:10329000DBFE684801682822885CFE2318408854B9
:1032A000FFE76448016820220020885480BDC046A2
:1032B000F000002070B584B05E4900914C48086071
:1032C0000A68012010600A68282300200190D05469
:1032D0000A68D0600A6850610A6810820A68D06182
:1032E00090610A68108109682022885403A9087037
:1032F000FFE703A80078182834DCFFE74D49086889
:1033000003AB1D781C2214466C4304192C250020A5
:1033100060550C681E7815467543641920630C6867
:103320001E7815467543641960630C681E7815464F
:1033300075436419A0630C681E78154675436419BB
:10334000E0630C681E7815467543641920640968AB
:103350001B785A4389184864FFE70398401C03A967
:103360000870C6E702A900200870FFE702A80078ED
:1033700018283ADCFFE72F49086802AA13785B0196
:10338000C3185D20C400002018550B681478640130
:103390001B19BB24A40018510B68147864011B1975
:1033A000BD24A40018510B68147864011B195F2414
:1033B000E40018510B68147864011B19BF24A400A1
:1033C00018510B68147864011B1903242402185146
:1033D0000968127852018918C12292008850FFE7CB
:1033E0000298401C02A90870C0E704B070BDC04636
:1033F000F800002080B582B00E4800682021405CB3
:10340000002814D1FFE7FFF7F1FA0A490191086893
:10341000008A0A681081086840690968C860FFF777
:10342000E3FA01980168202201208854FFE702B0E6
:1034300080BDC046F0000020483400080000002095
:08344000000D0000202100082E
:04000005080020C10E
:00000001FF
