:020000040800F2
:10000000800D0020750100087D0100087F010008B7
:1000100000000000000000000000000000000000E0
:100020000000000000000000000000008101000846
:1000300000000000000000008301000885010008A6
:100040008701000800000000870100088701000800
:100050008701000887010008870100088701000860
:1000600000000000870100088701000887010008E0
:1000700087010008870100088701000800000000D0
:100080008701000800000000000000008701000850
:1000900000000000910E0008D50E0008870100083E
:1000A0008701000887010008870100088701000810
:1000B000F90E000800000000000000000000000031
:1000C00000F002F800F047F812A030C808382418F1
:1000D0002D18AC4201D100F03EF80FCCA246AB4641
:1000E0000CA730CF2D1B083F3F197C427F1E544484
:1000F0002D090426F441641EAC4201D300F02BF814
:100100000126334200D0FB1A3343984754465D46DC
:10011000DFE70000AC1B0000BC1B000070470000C4
:100120000023002400250026103A01D378C1FBD813
:10013000520700D330C100D50B6070471FB500F0E7
:10014000C5F904000020002101F07CFD401C606026
:100150001FBD10B510BD00F0CCF91146FFF7EEFF42
:1001600000F0F6FF00F0E4F903B4FFF7F2FF03BC80
:1001700000F02AFA0748804707480047FEE7FEE7F5
:10018000FEE7FEE7FEE7FEE704480549054A064BA1
:10019000704700008D0E0008C10000088007002095
:1001A000800D00208009002080090020F7B50F464F
:1001B00082B00026029C00F02DF9009000680190AA
:1001C0002578641C002D05D000F01CF90068405D06
:1001D000C007F5D12B2D02D02D2D1CD0641E009808
:1001E0000021016039462046049A00F017F9002FDB
:1001F000014604D03868A04201D1029838600098C6
:10020000006802280BD00098019A0260700506D59C
:10021000484205B0F0BD012080020643DFE70846F2
:10022000F7E7401ECAB24178401C8A4202D000293A
:10023000F9D1002070470022CBB20178401C9942CE
:1002400000D1421E0029F8D11046704730B5441C39
:1002500003E00178401C00290DD08107F9D10B4B38
:10026000DD0104C8D11A91432940FAD0001B0A06C7
:1002700003D0C01E30BD001B30BD0A0401D0801E5B
:1002800030BD0902FCD0401E30BD0000010101015B
:10029000002203098B422CD3030A8B4211D3002383
:1002A0009C464EE003460B433CD4002243088B425D
:1002B00031D303098B421CD3030A8B4201D39446EA
:1002C0003FE0C3098B4201D3CB01C01A52418309DD
:1002D0008B4201D38B01C01A524143098B4201D397
:1002E0004B01C01A524103098B4201D30B01C01AC2
:1002F0005241C3088B4201D3CB00C01A524183083C
:100300008B4201D38B00C01A524143088B4201D368
:100310004B00C01A5241411A00D2014652411046C8
:1003200070475DE0CA0F00D04942031000D340423D
:1003300053409C46002203098B422DD3030A8B4273
:1003400012D38901FC2212BA030A8B420CD3890111
:1003500092118B4208D3890192118B4204D38901F7
:100360003AD0921100E08909C3098B4201D3CB0135
:10037000C01A524183098B4201D38B01C01A5241EA
:1003800043098B4201D34B01C01A524103098B42EE
:1003900001D30B01C01A5241C3088B4201D3CB00D9
:1003A000C01A524183088B4201D38B00C01A5241BC
:1003B000D9D243088B4201D34B00C01A5241411A93
:1003C00000D201465241104663465B1001D34042C1
:1003D000002B00D54942704763465B1000D3404272
:1003E00001B50549002802DC491C084000E0084628
:1003F000C046C04602BD00BFFFFFFF7F7047704789
:100400007047000010B500F061F8001D10BD00BF7E
:10041000351800000048704700000020F7B5154669
:1004200082B00027029C2078641C0197302802D0FB
:10043000002D15D015E020780127641C782804D001
:10044000582802D0002D09D00BE0002D01D0102D2E
:1004500007D1207800271025641C02E0082500E061
:100460000A250026009610E0009901276943081824
:1004700029467143020C80B200908E1838048642DF
:1004800001D3012001902078641C294600F022F855
:100490000028E9DA0398002805D0002F01D0641E57
:1004A00000E0029C04600198002806D0FFF7B2FF2C
:1004B00002210160C81E05B0F0BD00993004084358
:1004C000F9E700000048704700000020004870472E
:1004D000200000203A2800D23038202302469A43D8
:1004E000412A01D310463738884201D30020C04347
:1004F00070477546FFF7E6FFAE460500694653466E
:10050000C008C000854618B020B5FFF73DFE60BCAE
:10051000B64600260027C0C5C0C5C0C5C0C5C0C5F9
:10052000C0C5C0C5C0C5403D490849008D4670479B
:1005300010B50446C046C0462046FFF715FE10BD64
:10054000024670B50A4392072AD11E4DEE0104C837
:1005500008C9541B9443344017D0D0B2D9B2401AC2
:100560002106014310D190B299B2401A21040143EF
:100570000AD110021902000A090A401A2102014395
:1005800002D1100E190E401A70BD9A42DFD010BA77
:1005900019BA884201D9012070BD0020C04370BD46
:1005A00002780B78401C491C002A09D09A4207D1D6
:1005B00002780B78401C491C002A01D09A42EFD0E7
:1005C000D01A70BD0101010101491820ABBEFEE740
:1005D00026000200704780B501F052FA002000F0BA
:1005E0009DFE002806D0FFE705200007042100F04B
:1005F000B3FAFFE7022000F0B8FE002803D0FFE7BF
:1006000000F0B8FAFFE700F0BDFB80BD80B588B010
:10061000624908680122079210430860002306938C
:10062000019300930520000703900421049100F03A
:1006300019FA0398049900F084FAE120400200F0CE
:10064000C5F87D200590C00000F0B2FD0599069820
:10065000890000F091FF0798044900F08DFF022007
:10066000034900F089FF08B080BDC046B80B000008
:10067000204E0000A7498C22002088547047C046B5
:10068000014900200860704724440140A1488C21A2
:10069000405C704780B584B0039002A900200880B8
:1006A000FFE702A80088019000F08CF8014601984D
:1006B00088420FDAFFE702A80090008800F074F883
:1006C000009A039912888854FFE70298401C02A9F7
:1006D0000880E6E704B080BD81B06946002008705C
:1006E000FFE7684600787F280CDCFFE76846017862
:1006F0008848411800204870FFE70098401C694670
:100700000870EEE7834981220020885401B07047C9
:10071000F0B52248006801210840012806D0FFE713
:100720001E490868012210430860FFE705200607FC
:1007300030683021C94308403060306820221043BF
:100740003060174C20680840206020681021084362
:100750002060144908680F231A0290430860086853
:1007600001221502284308603068C025ED43284067
:10077000306030688027384330602068284020602F
:10078000206840252843206008681B0398430860C0
:100790000868120310430860F0BDC04634100240E0
:1007A0000C0000502000005081B0014668460180D6
:1007B000018858484018407801B070475548812159
:1007C000405C704780B5FFF7F9FF80BD80B582B00F
:1007D000019000F04FF8FFF79BFF019800F004F83C
:1007E00000F09AF802B080BD80B584B0039018493B
:1007F00008680122019252041043086003991548C9
:10080000FFF746FD019A80B213490860134902912F
:100810000868082318430860086804231843086020
:100820000868520790430860086820221043086057
:100830001C20009000F08EFB0098022100F0B4FB19
:10084000019A029908681043086004B080BDC04650
:100850003C1002400024F4000C44004000440040DE
:1008600081B00348006800900098C0B201B07047A2
:100870002444004082B027490020087001A9087074
:10088000FFE701A800787F280CDCFFE701A80178CA
:100890002048411800204870FFE70198401C01A93A
:1008A0000870EEE71B4981220020885469460870D1
:1008B000FFE76846007807280DDCFFE76846017807
:1008C00014484118822200208854FFE70098401CF9
:1008D00069460870EDE70F498A22002088548B2270
:1008E00088548C22885402B07047C0462249086858
:1008F00001229043086007498B22002088547047EA
:100900001D4A116801200143116002498B2288545D
:100910007047C0466000002080B582B0C4480068BF
:10092000012149040840884207D0FFE7C049086810
:100930000122520410430860FFE70F490868802233
:10094000104308600D490E4808600E4914200860E5
:100950000D4908680122104308600C4908681043DB
:1009600008601520019000F0F5FA0198022100F0CE
:100970001BFB02B080BDC04600440140284401403A
:100980007F3E00002C440140144401400C440140CF
:1009900080B584B0039002A8017001A900200880EE
:1009A000FFE701A8008802A9097888420CDAFFE76E
:1009B000039801A90988405C00F008F8FFE7019856
:1009C000401C01A90880ECE704B080BD81B001465D
:1009D00068460170007809490860FFE70848006828
:1009E00040210840402801D0FFE7F7E705490868A3
:1009F00040221043086001B07047C04628440040C0
:100A00001C4400402044004080B50D20FFF7DEFF6D
:100A10000A20FFF7DBFF80BD80B584B0039002A9F8
:100A200000200870FFE7039802A90978405C0028BD
:100A30000CD0FFE7039802A901910978405CFFF709
:100A4000C5FF01990298401C0870ECE704B080BD16
:100A500080B582B001900198FFF7DEFFFFF7D4FF69
:100A600002B080BD70B587B01C46154600910146A6
:100A700000980C9A0B9B069105A9088004A80570A4
:100A800003AD2C7002AC237001AB1A700A885300BE
:100A9000032215469D40069C2368AB4323600378E0
:100AA0001340098849008B40069A11681943116068
:100AB0000078012805D0FFE704A80078022818D1A3
:100AC000FFE703A80078012809D1FFE705A80088FF
:100AD00001228240069948681043486008E005A852
:100AE0000088012282400699486890434860FFE7E9
:100AF000FFE705A801884A0003210C469440069BA5
:100B00009A68A2439A6001AA14780C4002885200A5
:100B10009440069B9A6822439A60028852000C46D1
:100B20009440069BDA68A243DA6002AA12780A406F
:100B30000088400082400699C8681043C86007B02A
:100B400070BD82B001906846018001880120884014
:100B50000199886102B0704782B0019068460180B7
:100B6000008801228240019948695040486102B0E2
:100B70007047000080B584B0244800680390244882
:100B8000006802900398401C002805D0FFE70298F7
:100B9000401C002804D1FFE72848FFF759FF32E046
:100BA0000398400F002805D0FFE7039819498842B1
:100BB00004D3FFE72048FFF74BFF24E002981349D6
:100BC000884205D3FFE702981349884204D3FFE720
:100BD0001848FFF73DFF16E0104900200860104953
:100BE0000860104908601049086010490860104901
:100BF0000860BFF34F8FBFF36F8F02980190019889
:100C00008047FFE7FEE704B080BDC0460020000833
:100C100004200008002000200080000810E000E010
:100C200014E000E018E000E0341002403C10024004
:100C300040100240701C0008A61C0008861C00081A
:100C400010B596B0189C15901491139212931598A4
:100C500000783C2801D0FFE792E015980790FFF755
:100C6000F5FA07994018401E00783E2801D0FFE7AA
:100C700086E015983A210291FFF7D3FA0299159A66
:100C8000801A11AA059210701598FFF7D4FA1599D9
:100C9000401A10A90491087015980390427981793F
:100CA00009028A18C1790B04017A0906C918891842
:100CB0000E914278817809028918C278120400796D
:100CC0000006801840180D900DA8002106910172B1
:100CD0001022FFF76BFA049A059903460698149CB4
:100CE000236012780978C9438A180CA90A800988F8
:100CF00049080BAA11800B99129A11700AA98870E1
:100D000009A90880FFE709A800880BA9098888427B
:100D100022DAFFE7159A11A9087809AB01931C881C
:100D200064000019801842780AA80270159A0978A0
:100D30001B885B00C918891889784170002110222E
:100D4000FFF734FA019A139912888854FFE709983B
:100D5000401C09A90880D6E7159A10A908788018C0
:100D6000427808A80270159A097889188978417024
:100D7000002181701022FFF719FA18990870FFE717
:100D800016B010BD80B5CAB0FFF780FC002801D1B5
:100D9000FFE773E0FFF716FD49A9088029A8FFF7D0
:100DA00079FCFFF767FC28A900200880FFE728A846
:100DB000008849A90988884260DAFFE728A80188E5
:100DC00029A8415C27A8017000783C280DD1FFE7D5
:100DD0002B49012008702B4B0020188027981A8877
:100DE000511C19802849885442E025480078002881
:100DF0003DD0FFE72798234B1A88511C19802249C0
:100E0000885427A800783E2830D1FFE71D48017894
:100E10001D480190FFF7BCFD019804A9009126A987
:100E200006AA05ABFFF70CFF03A90020087026985F
:100E30000290FFE7029805A9098888420ED2FFE7D1
:100E4000029803AB1A78511C197006A9895C00F04E
:100E500059F9FFE70298401C0290EBE7FFF73CFCD2
:100E600007490020087007490880FFE7FFE7FFE710
:100E7000FFE72898401C28A9088098E74AB080BD61
:100E8000700100206E010020ED000020704700007E
:100E900080B52F488B21405C012803D1FFE7FFF785
:100EA00025FDFFE7FFF78AFC012805DBFFE728495E
:100EB0008C220120885404E025498C22002088548B
:100EC000FFE70349086801229043086080BDC046DF
:100ED0001044014080B507480068C007002806D0CC
:100EE000FFE704490868012290430860FFE700F02B
:100EF00039F980BD1048014080B51448006880066B
:100F0000002822D5FFE7FFF7ABFC024610488121FD
:100F1000435CC3185A70425C521C4254405C8028A7
:100F200005DBFFE70A49812200208854FFE70848D3
:100F30008B21405C002805D1FFE7FFF7A1FBFFF7FD
:100F4000DFFCFFE7FFF79CFBFFE780BD1C44004090
:100F50006000002081B001466846017000214056C3
:100F6000002809D4FFE7684601781F2001400120CE
:100F700088400C490860FFE701B0704781B0014626
:100F80006846017000214056002809D4FFE76846F2
:100F900001781F2001400120884002490860FFE7D6
:100FA00001B0704700E100E070B582B0024601A8D0
:100FB0000270009100214056002816D4FFE700245B
:100FC00001A908570322D3431840364A80580957CD
:100FD0008C07E50EFF24AC40A043009CA401E4B2C2
:100FE000AC402043194088501AE001A908780F242A
:100FF000204008380322D3431840294A805800254E
:1010000049578D07EE0EFF25B540A843009DAD0161
:10101000EDB2B54028432140083919408850FFE718
:1010200002B070BD70B582B0024601A80270009196
:1010300000214056002816D4FFE7002401A90857D4
:101040000322D3431840174A805809578C07E50EEE
:10105000FF24AC40A043009CA401E4B2AC40204378
:10106000194088501AE001A908780F242040083858
:101070000322D34318400A4A8058002549578D0758
:10108000EE0EFF25B540A843009DAD01EDB2B54081
:1010900028432140083919408850FFE702B070BD4D
:1010A0001CED00E000E400E028490868014A104314
:1010B00008607047FB030000234908680122D2073B
:1010C000104308607047C0461F480068C00F0028E2
:1010D00006D0FFE703490448086004480860FFE7BA
:1010E0007047C0460820024023016745AB89EFCD19
:1010F000FFE716480068C003002801D5FFE7F8E7BE
:101100007047C04680B584B003900291FFF7F0FFAE
:10111000FFF7CAFFFFF7D8FF0B49019108680122CA
:10112000009210430860029803990860FFF7E0FFFF
:10113000009A019905480260086890430860FFF72B
:10114000BBFF04B080BDC046142002401020024006
:1011500080B582B000200190FFF758FAFFE7FFF753
:101160003AFAFCE710B5E9490A68108A401C108277
:101170000A68D069936900245B1C60419361D06167
:101180000868008A09680968884209D3FFE7E848C7
:1011900002680021118201684869401C4861FFE72C
:1011A000E34801682822885C01231843885410BD55
:1011B00080B582B0019000F083FC019800F018FC2B
:1011C00002B080BD62B6704772B6704781B06946A2
:1011D0000870E84800680A781C2151434018406BA9
:1011E00001B0704781B069460870E24800680A782B
:1011F0001C2151434018006B01B0704781B0694613
:101200000870DC4800680A781C2151434018C06B04
:1012100001B0704781B069460870D64800680A7806
:101220001C21514340182C21405CC006000F01B026
:101230007047C04681B069460870CE4800680A7899
:101240001C2151434018006C01B0704781B06946C1
:101250000870C84800680A781C2151434018406C47
:1012600001B0704782B001AA107000910098C14986
:10127000096813781C225A438918486302B07047E2
:1012800082B001AA107000910098EE4909681378A5
:101290001C225A438918086302B0704782B001AA21
:1012A000107000910098E749096813781C225A438E
:1012B0008918C86302B0704710B583B00091024628
:1012C000009802A90A7001AA1070019BEB480068FF
:1012D0000A781C21514341182C22885C1B07DB0E25
:1012E000E1242040C018885403B010BD82B001AA88
:1012F000107000910098F249096813781C225A4333
:101300008918486402B0704780B582B0014601A8D0
:101310000170007800F09AF802B080BD80B584B00A
:10132000014602A80170007800F064F8042814D186
:10133000FFE702A80090007800F04EF80146009800
:1013400001910078FFF7E0FF00980078019900F024
:1013500013F903A90120087003E003A90020087015
:10136000FFE703A8007804B080BD80B582B00146D5
:1013700068460170007800F03DF8042808D1FFE7C6
:1013800068460078FFF7C0FF01A90120087003E05C
:1013900001A900200870FFE701A8007802B080BD15
:1013A00081B069460870C64800680978490140184C
:1013B000BB218900405801B07047C04681B06946E2
:1013C0000870BF4800680978490140182F210901B9
:1013D000405801B07047C04681B069460870B848AF
:1013E0000068097849014018BF218900405801B0C0
:1013F0007047C04681B069460870B14800680978F6
:10140000490140185D21C900405CC006000F01B0D1
:101410007047C04681B069460870A94800680978DD
:101420004901401803210902405801B07047C046E5
:1014300081B069460870A2480068097849014018DF
:10144000C1218900405801B07047C04680B584B0C2
:10145000014603A80290017000780021019100F07C
:10146000F3F801990298007800F01AF901990298AE
:10147000007800F005F901990298007800F06AF808
:1014800001990298007800F055F8019902980078C7
:1014900000F02CF801990298007800F017F80298F3
:1014A000007800F003F804B080BD000081B0694608
:1014B0000870E74800680978490141185D20C200BA
:1014C000885CFE231840885401B0704782B001AA9E
:1014D000107000910098DE4909681278520189184D
:1014E000BD229200885002B07047C04682B001AA67
:1014F000107000910098D649096812785201891835
:10150000BB229200885002B07047C0467401002090
:1015100082B001AA107000910098CD490968127834
:10152000520189182F221201885002B07047C0461C
:101530007401002082B001AA107000910098C44983
:1015400009681278520189185F22D200885002B0CF
:101550007047C04682B001AA107000910098BC4943
:101560000968127852018918BF229200885002B08F
:101570007047C0467401002080B58AB0024609A8B1
:10158000027008910078FFF735FF002857D1FFE778
:1015900009A80290007800210191FFF797FF0199B7
:1015A0000298007800F07CF802980078089900F022
:1015B00067F800F05BFA079000F05CFA0690089874
:1015C000A349039109680968FEF762FE084603997A
:1015D0000590089809680968FEF75AFE0399049077
:1015E000069A059880180590059809680968884248
:1015F0000BD3FFE70498401C0490954800680168ED
:101600000598FEF745FE0591FFE7079904984018F5
:10161000049009A8009000780499FFF767FF0098EC
:1016200000780599FFF774FF009800780899FFF794
:1016300091FF00980078012100F006F8FFE70AB05A
:1016400080BDC0467401002010B583B000910246F1
:10165000009802A90A7001AA1070019B7C480068DA
:101660000978490141185D20C200885C1B07DB0E28
:10167000E1242040C018885403B010BD740100203C
:1016800082B001AA107000910098FC490968127894
:101690005201891803221202885002B07047C046D6
:1016A00082B001AA107000910098F449096812787C
:1016B00052018918C1229200885002B07047C0467A
:1016C0007401002080B590B001460FA80170007829
:1016D000FFF790FE01285FD1FFE700F0C7F90E90F9
:1016E00000F0C8F90D900FA808900078FFF758FE99
:1016F000014608980E9A891A0B91F0490968096801
:101700000B9A51430B910078FFF758FE0146089859
:101710000D9A891A0A910B990A9A89180C910078E6
:101720000C99FFF7BDFF089800780990FFF772FE4B
:10173000014609980C9A891AFFF7C8FE0C980028F0
:1017400029D1FFE70FA80790007800210491FFF747
:10175000CDFE049907980078FFF7DAFE0499079800
:101760000078FFF79DFF079800780590FFF752FE7D
:1017700001460598FFF7AAFE079800780690FFF744
:101780002BFE01460698FFF7E5FE07980078042136
:10179000FFF75AFFFFE759E00FA80078FFF72AFE8E
:1017A000022852D1FFE700F061F90E9000F062F9D3
:1017B0000D900FA80078FFF73BFE0C900C98BF49E6
:1017C000039109680968FEF763FD084603990A90CA
:1017D0000C9809680968FEF75BFD03990B900D9A58
:1017E0000A9880180A900A980968096888420BD3F9
:1017F000FFE70B98401C0B90B048006801680A98FE
:10180000FEF746FD0A91FFE70E990B9840180B90E2
:101810000FA8009000780B99FFF768FE00980078F9
:101820000A99FFF775FE009800780290FFF7F2FD25
:101830000146009801910078FFF7FAFD01990246F0
:101840000298891AFFF742FEFFE7FFE710B080BD5C
:101850007401002080B582B001A900200870FFE764
:1018600001A8007818280ADCFFE701A80078FFF734
:1018700029FFFFE70198401C01A90870F0E702B0BA
:1018800080BD80B592B0014611A801700021109171
:101890000078FFF7BFFC01284CD1FFE700F0E6F825
:1018A000109011A80F9000780C90FFF79BFC014658
:1018B0000C98109A891AFFF719FD0F9800780E906E
:1018C000FFF7B8FC01460F980D910078FFF7BEFCBA
:1018D0000D9902460E98891AFFF7C4FC0F980078FC
:1018E000FFF7B4FC002824D1FFE711A80B90007883
:1018F0000890FFF79FFC01460898FFF7B3FC0B9890
:10190000007800210991FFF7F1FC09990B98007804
:10191000FFF7B6FC0B9800780A90FFF76FFC0146C2
:101920000A98FFF7BBFC0B9800780421FFF7C4FC72
:10193000FFE743E011A80078FFF76CFC02283CD1D8
:10194000FFE700F093F8109011A80590007804903C
:1019500010990391FFF77AFC0399024604988918BD
:10196000FFF78EFC05980078FFF730FC01460598DC
:1019700007910078FFF75EFC014605980691007814
:10198000FFF764FC069902460798891A884213D02B
:10199000FFE711A8009000780290FFF74BFC01468A
:1019A000009801910078FFF751FC019902460298D6
:1019B000891AFFF757FCFFE7FFE7FFE712B080BD8A
:1019C00080B582B001A900200870FFE701A8007867
:1019D00018280ADCFFE701A80078FFF752FFFFE7AD
:1019E0000198401C01A90870F0E702B080BD00001A
:1019F00080B584B0039017490868012201929204CF
:101A0000104308601449029108688022104308605E
:101A100012490F20086003991148FEF739FC019A1A
:101A2000401E1049086010490868104308601620DD
:101A300000900021FFF7F6FA0098FFF79FFA019A4D
:101A4000029908681043086003987D490968086096
:101A500004B080BD401002400048014028480140C9
:101A600040420F002C4801400C4801407448006877
:101A7000C068704772480068008970477401002090
:101A800080B56F4800682821405CC00700280ED050
:101A9000FFE700F0B5F8FFF793FFFFF7DBFE6848BC
:101AA00001682822885CFE2318408854FFE76448B8
:101AB000016820220020885480BDC04674010020A7
:101AC00070B584B05E4900914C4808600A680120F6
:101AD00010600A68282300200190D0540A68D06062
:101AE0000A6850610A6810820A68D06190610A68C9
:101AF000108109682022885403A90870FFE703A811
:101B00000078182834DCFFE74D49086803AB1D78DE
:101B10001C2214466C4304192C25002060550C68C7
:101B20001E7815467543641920630C681E781546A7
:101B30007543641960630C681E7815467543641913
:101B4000A0630C681E78154675436419E0630C6841
:101B50001E78154675436419206409681B785A433A
:101B600089184864FFE70398401C03A90870C6E77A
:101B700002A900200870FFE702A8007818283ADCC4
:101B8000FFE72F49086802AA13785B01C3185D209C
:101B9000C400002018550B68147864011B19BB247D
:101BA000A40018510B68147864011B19BD24A4000B
:101BB00018510B68147864011B195F24E400185154
:101BC0000B68147864011B19BF24A40018510B681A
:101BD000147864011B19032424021851096812782F
:101BE00052018918C12292008850FFE70298401CD8
:101BF00002A90870C0E704B070BDC046780100209B
:101C000080B582B00E4800682021405C002814D1C5
:101C1000FFE7FFF7D9FA0A4901910868008A0A68C4
:101C20001081086840690968C860FFF7CBFA01981D
:101C30000168202201208854FFE702B080BDC04621
:101C40007401002010B500290AD00878002807D0B8
:101C500005487844FEF774FC002801D0002010BD30
:101C60000248784410BD00007E00000076000000AD
:101C70004150505F525354204F5554204F462046F8
:101C80004C4153482100456D70747920466C617356
:101C90006821204E6F2050726F6772616D204C6F0B
:101CA000616465642100535441434B20504F494EB9
:101CB000544552204F5554204F46205352414D0019
:101CC000E01D000800000020800D00002001000839
:101CD0001001000043000000F8FFFFFF00404040FB
:101CE00040404040404041414141414040404040EF
:101CF000404040404040404040404040400502029B
:101D00000202020202020202020202020220202059
:101D100020202020202020020202020202029090B5
:101D200090909090101010101010101010101010B3
:101D30001010101010101010020202020202888807
:101D40008888888808080808080808080808080813
:101D500008080808080808080202020240000000FB
:101D60000000000000000000000000000000000073
:101D70000000000000000000000000000000000063
:101D80000000000000000000000000000000000053
:101D90000000000000000000000000000000000043
:101DA0000000000000000000000000000000000033
:101DB0000000000000000000000000000000000023
:101DC0000000000000000000000000000000000013
:101DD0000000000000000000000000000000000003
:04000005080000C12E
:00000001FF
